{
    "contractName": "Library",
    "abi": [
        {
            "inputs": [],
            "stateMutability": "nonpayable",
            "type": "constructor"
        },
        {
            "inputs": [],
            "name": "CannotBorrowMoreCopies",
            "type": "error"
        },
        {
            "inputs": [],
            "name": "InvalidBookIndex",
            "type": "error"
        },
        {
            "inputs": [],
            "name": "NoCopiesAvailable",
            "type": "error"
        },
        {
            "inputs": [],
            "name": "NoCopiesOwned",
            "type": "error"
        },
        {
            "inputs": [],
            "name": "Unauthorized",
            "type": "error"
        },
        {
            "inputs": [
                {
                    "internalType": "uint256",
                    "name": "_bookId",
                    "type": "uint256"
                },
                {
                    "internalType": "uint256",
                    "name": "_copies",
                    "type": "uint256"
                }
            ],
            "name": "addCopiesToExistingBook",
            "outputs": [],
            "stateMutability": "nonpayable",
            "type": "function"
        },
        {
            "inputs": [
                {
                    "internalType": "uint256",
                    "name": "_bookId",
                    "type": "uint256"
                },
                {
                    "internalType": "string",
                    "name": "_bookName",
                    "type": "string"
                },
                {
                    "internalType": "uint256",
                    "name": "_copies",
                    "type": "uint256"
                }
            ],
            "name": "addNewBooks",
            "outputs": [],
            "stateMutability": "nonpayable",
            "type": "function"
        },
        {
            "inputs": [
                {
                    "internalType": "uint256",
                    "name": "_bookId",
                    "type": "uint256"
                }
            ],
            "name": "borrowBook",
            "outputs": [
                {
                    "components": [
                        {
                            "internalType": "uint256",
                            "name": "bookId",
                            "type": "uint256"
                        },
                        {
                            "internalType": "uint256",
                            "name": "availableCopies",
                            "type": "uint256"
                        },
                        {
                            "internalType": "string",
                            "name": "bookName",
                            "type": "string"
                        },
                        {
                            "internalType": "address[]",
                            "name": "allBorrowers",
                            "type": "address[]"
                        }
                    ],
                    "internalType": "struct Library.Book",
                    "name": "desiredBook",
                    "type": "tuple"
                }
            ],
            "stateMutability": "nonpayable",
            "type": "function"
        },
        {
            "inputs": [],
            "name": "countOfAvailableBooks",
            "outputs": [
                {
                    "internalType": "uint256",
                    "name": "",
                    "type": "uint256"
                }
            ],
            "stateMutability": "view",
            "type": "function"
        },
        {
            "inputs": [],
            "name": "getAllAvailableBooks",
            "outputs": [
                {
                    "components": [
                        {
                            "internalType": "uint256",
                            "name": "bookId",
                            "type": "uint256"
                        },
                        {
                            "internalType": "uint256",
                            "name": "availableCopies",
                            "type": "uint256"
                        },
                        {
                            "internalType": "string",
                            "name": "bookName",
                            "type": "string"
                        },
                        {
                            "internalType": "address[]",
                            "name": "allBorrowers",
                            "type": "address[]"
                        }
                    ],
                    "internalType": "struct Library.Book[]",
                    "name": "available",
                    "type": "tuple[]"
                }
            ],
            "stateMutability": "view",
            "type": "function"
        },
        {
            "inputs": [
                {
                    "components": [
                        {
                            "internalType": "uint256",
                            "name": "bookId",
                            "type": "uint256"
                        },
                        {
                            "internalType": "uint256",
                            "name": "availableCopies",
                            "type": "uint256"
                        },
                        {
                            "internalType": "string",
                            "name": "bookName",
                            "type": "string"
                        },
                        {
                            "internalType": "address[]",
                            "name": "allBorrowers",
                            "type": "address[]"
                        }
                    ],
                    "internalType": "struct Library.Book",
                    "name": "book",
                    "type": "tuple"
                }
            ],
            "name": "returnBook",
            "outputs": [],
            "stateMutability": "nonpayable",
            "type": "function"
        }
    ],
    "bytecode": "608060405234801561001057600080fd5b50600080546001600160a01b03191633178155600455610dd2806100356000396000f3fe608060405234801561001057600080fd5b50600436106100625760003560e01c80630d5f1cac14610067578063225836121461007c5780634defe6631461008f5780637e490a9e146100ab578063d26532ee146100cb578063f4cbc4a6146100de575b600080fd5b61007a61007536600461094d565b6100f3565b005b61007a61008a3660046109cf565b610269565b61009860045481565b6040519081526020015b60405180910390f35b6100be6100b9366004610a11565b610354565b6040516100a29190610aef565b61007a6100d9366004610b02565b6105e3565b6100e66106b5565b6040516100a29190610b24565b6000546001600160a01b0316331461011d576040516282b42960e81b815260040160405180910390fd5b60008481526001602052604081205485910361014c576040516379e0e60160e11b815260040160405180910390fd5b600082116101755760405162461bcd60e51b815260040161016c90610b86565b60405180910390fd5b6060604051806080016040528087815260200184815260200186868080601f01602080910402602001604051908101604052809392919081815260200183838082843760009201829052509385525050506020918201849052888152600180835260409182902084518155928401519083015582015160028201906101fa9082610c67565b50606082015180516102169160038401916020909101906108d3565b50506003805460018101825560009182527fc2575a0e9e593c00f959f8c92f12db2869c3395a3b0502d05e2516446f71f85b018890556004805492509061025c83610d3d565b9190505550505050505050565b80356000818152600160205260408120549003610299576040516379e0e60160e11b815260040160405180910390fd5b8135600090815260026020908152604080832033845290915281205460ff16151590036102d957604051632e134d3d60e21b815260040160405180910390fd5b813560009081526001602081905260408220018054916102f883610d3d565b909155505081356000908152600160208190526040909120810154900361032f576004805490600061032983610d3d565b91905055505b503560009081526002602090815260408083203384529091529020805460ff19169055565b61037f6040518060800160405280600081526020016000815260200160608152602001606081525090565b6000828152600160205260408120548391036103ae576040516379e0e60160e11b815260040160405180910390fd5b600083815260026020908152604080832033845290915290205460ff1615156001036103ed576040516308eb645760e41b815260040160405180910390fd5b6000838152600160208190526040909120015461041d57604051632c89bf3b60e11b815260040160405180910390fd5b60016000848152602001908152602001600020604051806080016040529081600082015481526020016001820154815260200160028201805461045f90610bde565b80601f016020809104026020016040519081016040528092919081815260200182805461048b90610bde565b80156104d85780601f106104ad576101008083540402835291602001916104d8565b820191906000526020600020905b8154815290600101906020018083116104bb57829003601f168201915b505050505081526020016003820180548060200260200160405190810160405280929190818152602001828054801561053a57602002820191906000526020600020905b81546001600160a01b0316815260019091019060200180831161051c575b50505091909252505050600084815260016020819052604082200180549294509061056483610d56565b90915550506000838152600160208190526040822001549003610597576004805490600061059183610d56565b91905055505b50600082815260016020818152604080842060030180549384018155845281842090920180546001600160a01b0319163390811790915594835260028152908220939091529190915290565b6000546001600160a01b0316331461060d576040516282b42960e81b815260040160405180910390fd5b60008281526001602052604081205483910361063c576040516379e0e60160e11b815260040160405180910390fd5b6000821161065c5760405162461bcd60e51b815260040161016c90610b86565b600083815260016020819052604082200154900361068a576004805490600061068483610d3d565b91905055505b600083815260016020819052604082200180548492906106ab908490610d6d565b9091555050505050565b606060045467ffffffffffffffff8111156106d2576106d2610bc8565b60405190808252806020026020018201604052801561072e57816020015b61071b6040518060800160405280600081526020016000815260200160608152602001606081525090565b8152602001906001900390816106f05790505b5090506000805b6003548110156108ce576000600160006003848154811061075857610758610d86565b9060005260206000200154815260200190815260200160002060405180608001604052908160008201548152602001600182015481526020016002820180546107a090610bde565b80601f01602080910402602001604051908101604052809291908181526020018280546107cc90610bde565b80156108195780601f106107ee57610100808354040283529160200191610819565b820191906000526020600020905b8154815290600101906020018083116107fc57829003601f168201915b505050505081526020016003820180548060200260200160405190810160405280929190818152602001828054801561087b57602002820191906000526020600020905b81546001600160a01b0316815260019091019060200180831161085d575b50505050508152505090506000816020015111156108bd5780848461089f81610d3d565b9550815181106108b1576108b1610d86565b60200260200101819052505b506108c781610d3d565b9050610735565b505090565b828054828255906000526020600020908101928215610928579160200282015b8281111561092857825182546001600160a01b0319166001600160a01b039091161782556020909201916001909101906108f3565b50610934929150610938565b5090565b5b808211156109345760008155600101610939565b6000806000806060858703121561096357600080fd5b84359350602085013567ffffffffffffffff8082111561098257600080fd5b818701915087601f83011261099657600080fd5b8135818111156109a557600080fd5b8860208285010111156109b757600080fd5b95986020929092019750949560400135945092505050565b6000602082840312156109e157600080fd5b813567ffffffffffffffff8111156109f857600080fd5b820160808185031215610a0a57600080fd5b9392505050565b600060208284031215610a2357600080fd5b5035919050565b600081518084526020808501945080840160005b83811015610a635781516001600160a01b031687529582019590820190600101610a3e565b509495945050505050565b80518252600060208083015181850152604083015160806040860152805180608087015260005b81811015610ab15782810184015187820160a001528301610a95565b50600060a08288010152601f19601f820116860192505050606083015160a0858303016060860152610ae660a0830182610a2a565b95945050505050565b602081526000610a0a6020830184610a6e565b60008060408385031215610b1557600080fd5b50508035926020909101359150565b6000602080830181845280855180835260408601915060408160051b870101925083870160005b82811015610b7957603f19888603018452610b67858351610a6e565b94509285019290850190600101610b4b565b5092979650505050505050565b60208082526022908201527f43616e6e6f742061646420626f6f6b732077697468207a65726f20636f706965604082015261399760f11b606082015260800190565b634e487b7160e01b600052604160045260246000fd5b600181811c90821680610bf257607f821691505b602082108103610c1257634e487b7160e01b600052602260045260246000fd5b50919050565b601f821115610c6257600081815260208120601f850160051c81016020861015610c3f5750805b601f850160051c820191505b81811015610c5e57828155600101610c4b565b5050505b505050565b815167ffffffffffffffff811115610c8157610c81610bc8565b610c9581610c8f8454610bde565b84610c18565b602080601f831160018114610cca5760008415610cb25750858301515b600019600386901b1c1916600185901b178555610c5e565b600085815260208120601f198616915b82811015610cf957888601518255948401946001909101908401610cda565b5085821015610d175787850151600019600388901b60f8161c191681555b5050505050600190811b01905550565b634e487b7160e01b600052601160045260246000fd5b600060018201610d4f57610d4f610d27565b5060010190565b600081610d6557610d65610d27565b506000190190565b80820180821115610d8057610d80610d27565b92915050565b634e487b7160e01b600052603260045260246000fdfea26469706673582212204c78680871cdb754b02d3a55933a21f687a7dde60a7411ca822cef24293cbc7564736f6c63430008110033",
    "sourcePath": "d:/Git/LimeAcademy/Week 0/Library.sol",
    "compiler": {
        "name": "solc",
        "version": "0.8.17+commit.8df45f5f"
    },
    "functionHashes": {
        "addCopiesToExistingBook(uint256,uint256)": "d26532ee",
        "addNewBooks(uint256,string,uint256)": "0d5f1cac",
        "borrowBook(uint256)": "7e490a9e",
        "countOfAvailableBooks()": "4defe663",
        "getAllAvailableBooks()": "f4cbc4a6",
        "returnBook((uint256,uint256,string,address[]))": "22583612"
    },
    "gasEstimates": {
        "creation": {
            "codeDepositCost": "707600",
            "executionCost": "29979",
            "totalCost": "737579"
        },
        "external": {
            "addCopiesToExistingBook(uint256,uint256)": "55533",
            "addNewBooks(uint256,string,uint256)": "infinite",
            "borrowBook(uint256)": "infinite",
            "countOfAvailableBooks()": "2306",
            "getAllAvailableBooks()": "infinite",
            "returnBook((uint256,uint256,string,address[]))": "infinite"
        }
    }
}